http://www.mumayi.com/xinwen-20180202-63727.html
https://github.com/bitcoin/bips/blob/master/bip-0140.mediawiki
https://github.com/bitcoin/bips/blob/master/bip-0141.mediawiki
https://github.com/bitcoin/bips/blob/master/bip-0142.mediawiki
https://github.com/bitcoin/bips/blob/master/bip-0143.mediawiki
https://github.com/bitcoin/bips/blob/master/bip-0144.mediawiki
https://github.com/bitcoin/bips/blob/master/bip-0145.mediawiki
https://github.com/bitcoin/bips/blob/master/bip-0173.mediawiki

private key  : eb696a065ef48a2192da5b28b694f87544b30fae8327c4510137a922f32c6dcf
public key   : 03ad1d8e89212f0b92c74d23bb710c00662ad1470198ac48c43f7d6f93a2a26873
hash160(pubkey_compress) = 79091972186c449eb1ded22b78e40d009bdf0089
redeem_script = 001479091972186c449eb1ded22b78e40d009bdf0089
hash160(redeem_script) = 4733f37cf4db86fbc2efed2500b4f4e49f312023

01000000
01
// 77541aeb3c4dac9260b68f74f44c973081a9d4cb2ebe8038b2d70faa201b6bdb
db6b1b20aa0fd7b23880be2ecbd4a98130974cf4748fb66092ac4d3ceb1a5477
01000000
00
feffffff
02
b8b4eb0b00000000
1976a914a457b684d7f0d539a46a45bbc043f35b59d0d96388ac
0008af2f00000000
1976a914fd270b1ee6abcaea97fea7ad0402e8bd8ad6d77c88ac
92040000

hashPrevouts:
dSHA256(db6b1b20aa0fd7b23880be2ecbd4a98130974cf4748fb66092ac4d3ceb1a547701000000)
  = b0287b4a252ac05af83d2dcef00ba313af78a3e9c329afa216eb3aa2a7b4613a
  
hashSequence:
dSHA256(feffffff)
  = 18606b350cd8bf565266bc352f0caddcf01e8fa789dd8a15386327cf8cabe198
  
hashOutputs:    dSHA256(b8b4eb0b000000001976a914a457b684d7f0d539a46a45bbc043f35b59d0d96388ac0008af2f000000001976a914fd270b1ee6abcaea97fea7ad0402e8bd8ad6d77c88ac)
= de984f44532e2173ca0d64314fcefe6d30da6f8cf27bafa706da61df8a226c83

// hash_preimage
nVersion:     01000000
hashPrevouts: b0287b4a252ac05af83d2dcef00ba313af78a3e9c329afa216eb3aa2a7b4613a
hashSequence: 18606b350cd8bf565266bc352f0caddcf01e8fa789dd8a15386327cf8cabe198
outpoint:     db6b1b20aa0fd7b23880be2ecbd4a98130974cf4748fb66092ac4d3ceb1a5477
				01000000
scriptCode:   1976a91479091972186c449eb1ded22b78e40d009bdf008988ac
amount:       00ca9a3b00000000
nSequence:    feffffff
hashOutputs:  de984f44532e2173ca0d64314fcefe6d30da6f8cf27bafa706da61df8a226c83
nLockTime:    92040000
nHashType:    01000000

// sign_tx
01000000
0001
01
db6b1b20aa0fd7b23880be2ecbd4a98130974cf4748fb66092ac4d3ceb1a5477
01000000
1716001479091972186c449eb1ded22b78e40d009bdf0089
feffffff
02
b8b4eb0b00000000
1976a914a457b684d7f0d539a46a45bbc043f35b59d0d96388ac
0008af2f00000000
1976a914fd270b1ee6abcaea97fea7ad0402e8bd8ad6d77c88ac
02473044022047ac8e878352d3ebbde1c94ce3a10d057c24175747116f8288e5d794d12d482f0220217f36a485cae903c713331d877c1f64677e3622ad4010726870540656fe9dcb01
2103ad1d8e89212f0b92c74d23bb710c00662ad1470198ac48c43f7d6f93a2a26873
92040000


// myself example
// 莉莉地址 
1PGZzja33nSCEQdNq4fc44FUkrL1uGMaUA
00 f4448cc33688010fa5e0a3994e083bab5e56ffb3 7d258ddb
pubkey: 0387a907e073e338124fb4204cb74932b18489aa425b1e8c3813d2a89bbdfcf2ac
0487a907e073e338124fb4204cb74932b18489aa425b1e8c3813d2a89bbdfcf2acecfea226b58920addd64f842d009fb37d4796cb54820252b26614fe6cbe653e5
hash160(pubkey_compress) = f4448cc33688010fa5e0a3994e083bab5e56ffb3

previous txid: 
txid: 94c1edb13db58dd6501c097b5a53513ccb21ad804eade9b200694b0ef18da35f
1PGZzja33nSCEQdNq4fc44FUkrL1uGMaUA -> 3KSgNuGVdF73seRMM8mRMPcbUb9SQmJTfy

01000000
01
7b423b71974bd08db13e4c91262ca8f7245bcc3fb701fb17e90557134ba667bd
01000000
6b483045022100d0472559b27f80db68fd5b768563d0b2f9a02cb1ff6f8d35d2f625ea50e557ae022077a1b9ab50991d972b730a1a06497093b3d58e9fee192661e9c7f0c6e6dd4e4301
210387a907e073e338124fb4204cb74932b18489aa425b1e8c3813d2a89bbdfcf2ac
ffffffff
02
7017000000000000
17a914c2bc1ff597b86487625572d3a63da7d740eaa27187
112a000000000000
1976a914f4448cc33688010fa5e0a3994e083bab5e56ffb388ac
00000000

// this tx
txid: ce39f5b41baaa47640614f51c19e5d317e42d006f1260095696a2df24bba70c2
unsign_tx:
010000000001015fa38df10e4b6900b2e9ad4e80ad21cb3c51535a7b091c50d68db53db1edc1940000000000ffffffff01b80b0000000000001976a914f4448cc33688010fa5e0a3994e083bab5e56ffb388ac00000000
str_version:
01000000
str_prevouts:
5fa38df10e4b6900b2e9ad4e80ad21cb3c51535a7b091c50d68db53db1edc194 00000000
str_outputs:
b80b0000000000001976a914f4448cc33688010fa5e0a3994e083bab5e56ffb388ac
str_hash_preimage:
01000000
403feb451981e4e60d17c1b2722508b72d64aebe669f9232d4ece09d7bb5e941
3bb13029ce7b1f559ef5e747fcac439f1455a2ec7c5f09b72290795e70665044
5fa38df10e4b6900b2e9ad4e80ad21cb3c51535a7b091c50d68db53db1edc194
00000000
1976a91484ece8cd565def42699199256a3a5f17e9b11b9688ac
7017000000000000
ffffffff
6ac0efa275376856fc212a202f29419aab14419966772bd9ace0756d662319f4
00000000
01000000
str_sign_data:
304402202167011092db1ed516262627c2ec40b013e20113bb73d776190f51c7701ffcad0220595a3697741b3e50377ea642d551dea40ec08f8cf6d31588c357507569b933d301
str_script:
16001484ece8cd565def42699199256a3a5f17e9b11b96
sign_tx:
010000000001015fa38df10e4b6900b2e9ad4e80ad21cb3c51535a7b091c50d68db53db1edc194000000001716001484ece8cd565def42699199256a3a5f17e9b11b96ffffffff01b80b0000000000001976a914f4448cc33688010fa5e0a3994e083bab5e56ffb388ac0247304402202167011092db1ed516262627c2ec40b013e20113bb73d776190f51c7701ffcad0220595a3697741b3e50377ea642d551dea40ec08f8cf6d31588c357507569b933d3012102b7be4fc0883a84e65bd33a2e528a32c409883c937285c07d2a2dbc3793e7556300000000

// txid hash preimage [nVersion][txins][txouts][nLockTime]
txid_hash_preimage = 
01000000015fa38df10e4b6900b2e9ad4e80ad21cb3c51535a7b091c50d68db53db1edc194000000001716001484ece8cd565def42699199256a3a5f17e9b11b96ffffffff01b80b0000000000001976a914f4448cc33688010fa5e0a3994e083bab5e56ffb388ac00000000
txid = dSHA256(txid_hash_preimage) = ce39f5b41baaa47640614f51c19e5d317e42d006f1260095696a2df24bba70c2

